:100000000C94D6000C94FE000C94FE000C94FE00A0
:100010000C94FE000C94FE000C94FE000C94FE0068
:100020000C94FE000C94FE000C944A050C94BC0544
:100030000C94FE000C94FE000C94FE000C94FE0048
:100040000C94FE000C94FE000C94FE000C94FE0038
:100050000C94FE000C94FE000C94FE000C94FA0725
:100060000C94FE000C94FE000C94FE000C94FE0018
:100070000C94FE000C94FE000C94FE000C94FE0008
:100080000C94FE000C94FE000C94FE000C94FE00F8
:100090000C9444080C94FE000C94FE000C94FE009A
:1000A0000C94FE000C94FE000C94FE008601890165
:1000B00078017C018001AA01AA01AA018D019101A8
:1000C00095019B019F01AA01A501080B00020202F4
:1000D00001000904000001020200000524001001D3
:1000E0000524010101042402060524060001070578
:1000F000810310004009040100020A000000070506
:1001000002024000000705830240000004030904C6
:1001100012010002EF02014041233680000101027A
:10012000030141726475696E6F204C4C430041724B
:100130006475696E6F204C656F6E6172646F00004C
:10014000000000250028002B002E003100040404CC
:10015000040403040502020202040302020202066E
:10016000060606060604040202020404040802014C
:1001700010408040102040804080080204018040F0
:1001800020100201108010204040200000000200DA
:10019000090F0000030401000C0000000000000033
:1001A00000000000000000000000720911241FBEC2
:1001B000CFEFDAE0DEBFCDBF11E0A0E0B1E0E2E5D5
:1001C000F5E102C005900D92A833B107D9F722E0FE
:1001D000A8E3B1E001C01D92A736B207E1F710E035
:1001E000C6EDD0E004C02197FE010E949C0AC53DE7
:1001F000D107C9F70E9493090C94A70A0C94000038
:1002000030910A02313208F04BC08091E601811131
:10021000FCCF9091090222E02093E60121E0209397
:10022000E5012FEF2093E4011092E3013093E20106
:10023000E9EEF1E0A2ECB1E020E0321721F04191CB
:100240004D932F5FFACF1092C1012091C101990FF8
:10025000922B9093C1019091C001913061F4109262
:10026000C0019091C1019093BB009091BC0093FD9F
:10027000F8CF95EC01C095EE9093BC009091E6010B
:100280009230E1F39091E4019F3F79F08091E40195
:10029000803241F08091E401803331F084E005C088
:1002A00081E003C082E001C083E01092E801109277
:1002B0000A021092E701089590E0FC01E557FE4F15
:1002C0004491FC01E459FE4F2491FC01E35BFE4F95
:1002D0008491882309F44CC04423E1F150E0FA01F1
:1002E0003197EF30F105B0F5EA5AFF4F0C949C0AB4
:1002F000909180009F7707C0909180009F7D03C000
:1003000090918000977F9093800024C094B59F7750
:1003100002C094B59F7D94BD1DC0909190009F77C1
:1003200007C0909190009F7D03C090919000977FAF
:10033000909390000FC09091C0009F7703C0909160
:10034000C0009F7D9093C00005C09091C200977F30
:100350009093C200E82FF0E0EE0FFF1FE15CFE4F2C
:10036000A591B4918FB7F894EC91E22BEC938FBFE9
:1003700008952091BF01211103C08FEF9FEF0895D1
:100380005FB7F89422E02093E9002091F20030E07A
:100390001216130614F421E030E0422FFC0184E62B
:1003A000415038F028988093BE019091F1009193CC
:1003B000F7CF2115310521F08091F200882319F043
:1003C0005FBFC90108958BE68093E800F9CF2FB78E
:1003D000F89483E08093E9009091E800892F80727F
:1003E00095FF04C09091F20080E4891B2FBF08950F
:1003F0008091B60181110DC082E08093B20184E04A
:100400008093B3011092B5011092B40181E0809302
:10041000B60182EB91E00895CF93DF931F92CDB7A1
:10042000DEB76983DC01ED91FC910280F381E02D60
:1004300041E050E0BE016F5F7F4F09950F90DF9163
:10044000CF91089583E08093E9008091F2008823A2
:1004500019F08AE38093E80008950E94E70190E094
:100460000895CF93DF931F92CDB7DEB7FC0184854B
:10047000958597FD05C02FEF3FEF358724870BC08B
:10048000CE0101960E94B901019719F4898190E08B
:1004900002C08FEF9FEF0F90DF91CF9108950F93E0
:1004A0001F93CF93DF931F92CDB7DEB78C01FC0172
:1004B0008485958597FF0EC0CE0101960E94B901F3
:1004C000019719F4898190E002C08FEF9FEFF80146
:1004D00095878487F801848595850F90DF91CF916A
:1004E0001F910F910895FC018485958597FD0BC0A0
:1004F0009FB7F89482E08093E9008091F2009FBF5B
:1005000090E0019608959FB7F89482E08093E90007
:100510008091F2009FBF90E008954091AC0150910E
:10052000AD012091AA013091AB0142175307B4F4F9
:100530009091E8009570E1F39091E80092FD19C068
:100540008093F1008091AC019091AD0101968F7381
:100550009927892B19F48EEF8093E8008091AC01E4
:100560009091AD0101969093AD018093AC0181E033
:10057000089580E00895DF92EF92FF920F931F930A
:10058000CF93DF93D82EF92EE42E062F10E0C8016A
:100590000196880F0E948D0283E00E948D02CD2D6E
:1005A000DF2D0C0F1D1FC017D10789F0E7FE03C018
:1005B000FE01849101C088810E948D02F82E80E0A6
:1005C0000E948D028F2121968111EDCF01C081E023
:1005D000DF91CF911F910F91FF90EF90DF900895E1
:1005E000DF92EF92FF920F931F93CF93DF93D82E5A
:1005F0008A017B01E40EF51EEB01CE15DF0571F0DB
:10060000D7FE03C0FE01849101C088810E948D0243
:1006100021968111F2CF8FEF9FEF01C0C801DF91CA
:10062000CF911F910F91FF90EF90DF9008950F935E
:100630001F93CF93DF931F92CDB7DEB782E08983FC
:1006400042E450E06AEC70E080E80E94F0020E9410
:10065000F801DC0112960D911C91139701151105FB
:1006600089F0D801ED91FC910280F381E02DBE016B
:100670006F5F7F4FC801099597FD04C0F8010085A1
:100680001185ECCF89810F90DF91CF911F910F9150
:100690000895615030F02091F100FC012083019613
:1006A000F8CF289884E68093BE0108953FB7F89468
:1006B0008091A6019091A701A091A801B091A901F4
:1006C00026B5A89B05C02F3F19F00196A11DB11DAD
:1006D0003FBFBA2FA92F982F8827820F911DA11DE8
:1006E000B11DBC01CD0142E0660F771F881F991F25
:1006F0004A95D1F708958F929F92AF92BF92CF9271
:10070000DF92EF92FF926B017C010E9456034B0136
:100710005C01C114D104E104F104F1F00E9456031C
:10072000DC01CB0188199909AA09BB09883E9340CD
:10073000A105B10570F321E0C21AD108E108F10862
:1007400088EE880E83E0981EA11CB11CC114D10450
:10075000E104F10419F7DDCFFF90EF90DF90CF9027
:10076000BF90AF909F908F9008958F929F92AF927D
:10077000BF92CF92DF92EF92FF920F931F93CF938E
:10078000DF936C017B018A0180910B01882309F4BE
:100790005CC08091BF01882309F457C08091B101EA
:1007A00080FF05C08091E00082608093E000E80156
:1007B000B12C8AEFA82E93E0892E2AE3922E20975F
:1007C00011F4BB20D9F10E94E70181110AC0AA945B
:1007D000AA20D9F161E070E080E090E00E947B0304
:1007E000EECF282F30E0C217D3070CF48C2F9FB721
:1007F000F8948092E9002091E80025FF1DC0282F81
:1008000030E0C21BD30BF701815020F0419140939F
:10081000F100FACFE20EF31EBB2019F09092E8002F
:100820000AC08091E80085FD07C09092E800BB24D3
:10083000B394209709F0B12C9FBFC1CF5D9884E697
:100840008093B0011016110644F081E090E0F601AB
:100850009383828380E090E001C0C801DF91CF9153
:100860001F910F91FF90EF90DF90CF90BF90AF90CE
:100870009F908F90089508950895CF92DF92EF9200
:10088000FF920F931F93CF93DF936C017A018B013B
:10089000C0E0D0E0CE15DF0581F0D8016D918D016B
:1008A000D601ED91FC910190F081E02DC6010995F2
:1008B000892B11F02196EECF7E01C701DF91CF91F8
:1008C0001F910F91FF90EF90DF90CF90089585EDED
:1008D0008093BC008091BC0084FDFCCF1092E601A7
:1008E000089540917801262F30E0240F311D2132E8
:1008F0003105DCF42091E6012430C9F4FC0180E0EC
:1009000090E0861758F4309178012191DC01A85AC3
:10091000BE4FA30FB11D2C930196F3CF80917801A8
:10092000680F6093780180E0089581E0089582E087
:1009300008950895E091A00180919F01E81730F497
:10094000F0E0E85CFE4F808190E008958FEF9FEF2C
:1009500008959091A00180919F01981750F4E92F7C
:10096000F0E0E85CFE4F208130E09F5F9093A001B3
:1009700002C02FEF3FEFC901089580919F0190E0E1
:100980002091A001821B91090895CF92DF92EF92EE
:10099000FF920F931F93CF93DF937C01CB018A01CA
:1009A0002091E701222389F0EB016B01C40ED51ED3
:1009B000CC15DD0569F06991D701ED91FC910190AD
:1009C000F081E02DC7010995F3CF642F0E947104D7
:1009D000C801DF91CF911F910F91FF90EF90DF90B1
:1009E000CF900895CF93DF931F92CDB7DEB7698381
:1009F0002091E7012223D1F020910A02203240F019
:100A000021E030E0FC013383228380E090E015C0D8
:100A10008091E801E82FF0E0E751FE4F9981908343
:100A20008F5F8093E80180930A0205C061E0CE01E8
:100A300001960E94710481E090E00F90DF91CF91C8
:100A40000895682F8BE592E00C94F204089580E0FD
:100A500090E00895CF93C82F81E08093E70180E272
:100A6000809309021092E80110920A0283E190E05B
:100A70000E9421056C2F8BE592E00E94F2040E94F7
:100A8000000164E670E080E090E0CF910C947B037D
:100A90000E94A20A1F920F920FB60F9211248F93F9
:100AA0009F938091E1009091E100937F9093E1000A
:100AB00083FF0FC01092E90091E09093EB00109239
:100AC000EC0092E39093ED001092BF0198E09093B8
:100AD000F00082FF20C093E09093E9009091F20033
:100AE000992319F09AE39093E8009091B00199232B
:100AF00039F09091B00191509093B001992389F110
:100B00009091BE01992339F09091BE01915090933C
:100B1000BE01992341F184FF10C08091E2008E7ED6
:100B200081608093E2008091E1008F7E8093E100FC
:100B30008091B1018E7E806111C080FF16C08091CE
:100B4000E2008E7E80618093E2008091E1008E7EE3
:100B50008093E1008091B1018E7E81608093B1012C
:100B600004C05D9ACDCF289AD6CF9F918F910F90D8
:100B70000FBE0F901F9018951F920F920FB60F92F5
:100B80001124CF92DF92EF92FF920F931F932F9336
:100B90003F934F935F936F937F938F939F93AF9305
:100BA000BF93EF93FF93CF93DF93CDB7DEB76C97EF
:100BB000DEBFCDBF1092E9008091E80083FFFBC14A
:100BC00068E0CE0145960E94490382EF8093E800D9
:100BD0008D8987FF05C09091E80090FFFCCF03C08E
:100BE0009EEF9093E800982F907609F0C6C09E89FA
:100BF0004F89588D2F89F88C91110CC0803829F4B9
:100C00008091AF018093F10002C01092F100109228
:100C1000F10045C1913051F4811141C1413051057C
:100C200009F03DC18091AF018D7F0BC0933061F41D
:100C3000811135C14130510509F031C18091AF01B9
:100C400082608093AF012BC1953049F48091E80018
:100C500080FFFCCF822F80688093E30020C1963014
:100C600009F05EC00B8D1C8D22E01092E9001092FD
:100C7000AD011092AC01F21232C01092AB01109291
:100C8000AA010E94170399E0BE016F5F7F4FDB014D
:100C9000E92F1D92EA95E9F79983FA8291E09E8304
:100CA00090EA98879AEF99872091AC013091AD0135
:100CB000275F3F4F3C832B838D831092E900109276
:100CC000AD011092AC011093AB010093AA0149E071
:100CD00050E080E00E94F0020E941703E0C01093F1
:100CE000AB010093AA010E94F801DC0112960D915C
:100CF0001C9113970115110509F4BBC0D801ED91A2
:100D0000FC910480F581E02DBE016B5E7F4FC80130
:100D10000995009709F0C7C0F80100851185EACF51
:100D2000973009F445C1983021F481E08093F100B7
:100D3000B6C0993009F0B3C0837009F039C1EDE055
:100D4000F1E081E031E096E32081211109C08EE7D6
:100D50008093EA001092EA008F898093BF019FC0C0
:100D60008093E9003093EB0021912093EC00909365
:100D7000ED008F5F873041F7EACF8B8D9C8D10920D
:100D8000E9001092AD011092AC019093AB018093F9
:100D9000AA01898D811153C08E899D89913A49F4A8
:100DA000813209F005C147E050E064E071E080E085
:100DB000BBC0913209F0FCC0833269F48F89988DF1
:100DC000A0E0B0E08093000190930101A0930201A4
:100DD000B093030164C0803269F48091E80082FF1F
:100DE000FCCF67E084E091E00E9449038BEF8093A1
:100DF000E80055C0823209F052C08F8980930B0100
:100E0000EEEFFFE7859194918B3F9C4D19F0E0E068
:100E1000F8E002C0EEEFFAE0809104019091050144
:100E2000A0910601B0910701803B9440A105B10556
:100E300009F09EC080910B0180FF79C099C00E948B
:100E4000F801FC01028113810115110509F4B0C0FC
:100E5000D801ED91FC910190F081E02DBE016B5E17
:100E60007F4FC801099581111AC0F80100851185CD
:100E7000EBCFF1E0FF1609F44EC0F3E0FF1298C08B
:100E80008F89882309F44AC0823089F440E860E100
:100E90008EE291E00E94BB02882309F489C08EEFA4
:100EA0008093E80088C018161906CCF381C0813001
:100EB00029F440E86BE082E291E0ECCF833009F066
:100EC00077C00E94F801DC011296ED90FC90139718
:100ED0008E010F5F1F4F6801E114F10479F0D70113
:100EE000ED91FC910680F781E02DB801C7010995CD
:100EF000080F111DF701E084F184EECFD8011C9298
:100F0000F60101900020E9F73197BF016C197D09C6
:100F100040E0C601BFCF60E171E002C06CE071E06B
:100F2000FB01449150E080E80E94F002B8CFEE3F10
:100F30002AE0F20751F0808191818737A7E79A076D
:100F400021F09093FF0A8093FE0A87E797E7918349
:100F50008083809160008093AE019BE088E10FB6B2
:100F6000F894A895809360000FBE9093600097CF8F
:100F7000808191818737974709F091CFA89580911B
:100F800060008861809360008091AE018093600072
:100F9000EE3FBAE0FB0739F08091FE0A9091FF0A1C
:100FA000918380837CCF1092FF0A1092FE0A77CF44
:100FB00081E28093EB006C960FB6F894DEBF0FBE13
:100FC000CDBFDF91CF91FF91EF91BF91AF919F91F5
:100FD0008F917F916F915F914F913F912F911F91D1
:100FE0000F91FF90EF90DF90CF900F900FBE0F907A
:100FF0001F9018951F920F920FB60F9211242F93E6
:101000003F938F939F93AF93BF938091A201909151
:10101000A301A091A401B091A5013091A10123E009
:10102000230F2D3720F40196A11DB11D05C026E820
:10103000230F0296A11DB11D2093A1018093A2014F
:101040009093A301A093A401B093A5018091A60160
:101050009091A701A091A801B091A9010196A11DAD
:10106000B11D8093A6019093A701A093A801B0930E
:10107000A901BF91AF919F918F913F912F910F90B7
:101080000FBE0F901F9018951F920F920FB60F92E0
:1010900011242F933F934F935F936F937F938F937D
:1010A0009F93AF93BF93EF93FF938091B900887F95
:1010B000803609F49CC068F5883209F45BC090F46E
:1010C000803109F454C038F4882309F4F6C088301C
:1010D00009F44DC0F6C0883109F44CC0803209F4DF
:1010E0005DC0EFC0803409F468C048F4803309F46F
:1010F00055C0883309F0E5C08093E401D8C080353D
:1011000009F44FC0883509F45DC0883409F0D9C0AE
:10111000D6C0883909F4C7C0A8F4883709F467C075
:1011200038F4883609F463C0803709F460C0C9C058
:10113000883809F4B8C0803909F45FC0803809F0F4
:10114000C0C05BC0803B09F486C038F4803A09F423
:1011500066C0883A09F47FC0B4C0803C09F4A7C0D7
:10116000883C09F4A4C0883B09F48AC0AAC08091D5
:10117000C10110C09091E3018091E201981770F5D0
:10118000E091E30181E08E0F8093E301F0E0EE5304
:10119000FE4F80818093BB0085EC86C08093E40184
:1011A0008EC0E091E30181E08E0F8093E301809196
:1011B000BB00F0E0EE53FE4F80839091E3018091FD
:1011C000E2016EC0E091E30181E08E0F8093E301C4
:1011D0008091BB00F0E0EE53FE4F80838091E501EB
:1011E00081116DC081E08093C00184EA61C083E019
:1011F0008093E60110929A01CFCF80919A018032BC
:1012000008F051C0E0919A0181E08E0F80939A011D
:101210008091BB00F0E0E658FE4F8083BDCF85ECA7
:101220008093BC001092E60180919A01803230F4E4
:10123000E0919A01F0E0E658FE4F108260919A0129
:1012400070E0E0919B01F0919C018AE791E00995A3
:1012500010929A0136C084E08093E60110927901E1
:1012600010927801E0919D01F0919E010995809185
:101270007801811105C081E08093780110925801B6
:10128000E091790181E08E0F80937901F0E0E85AD6
:10129000FE4F80818093BB0090917901809178010D
:1012A000981708F479CF85E88093BC000AC085ECD4
:1012B0008093BC001092E60104C01092E4010E94E9
:1012C0006704FF91EF91BF91AF919F918F917F91B3
:1012D0006F915F914F913F912F910F900FBE0F90A3
:1012E0001F901895EBE0F2E01382128288EE93E0F3
:1012F000A0E0B0E084839583A683B78327E131E043
:10130000318320832FEF3FEF35872487EBE5F2E031
:101310001382128284839583A683B78389E291E046
:10132000918380830895789484B5826084BD84B568
:10133000816084BD85B5826085BD85B5816085BDD0
:1013400080916E00816080936E0010928100809188
:101350008100826080938100809181008160809310
:101360008100809180008160809380008091910055
:1013700082608093910080919100816080939100C0
:10138000809190008160809390008091C100846082
:101390008093C1008091C10082608093C1008091E0
:1013A000C10081608093C1008091C30081608093FF
:1013B000C3008091C00082608093C0008091C20011
:1013C00081608093C20080917A00846080937A006B
:1013D00080917A00826080937A0080917A008160A7
:1013E00080937A0080917A00806880937A001092CE
:1013F000BF011092AF011092B1018091D7008160BE
:101400008093D70080EA8093D80089B5806189BD38
:1014100089B5826089BD09B400FEFDCF61E070E04E
:1014200080E090E00E947B038091D8008F7C8061F7
:101430008093D8008091E000807F8093E0008091CD
:10144000E1008E7E8093E1008DE08093E200559A6A
:10145000209A1092A00110929F011092E801109220
:101460000A021092E601C1E0C093E5011092C001AA
:1014700082E00E945C0183E00E945C018091B900DF
:101480008E7F8093B9008091B9008D7F8093B900E1
:1014900088E48093B80085E48093BC008BE394E0FB
:1014A00090939E0180939D018CE394E090939C0126
:1014B00080939B01C093E70180E280930902109220
:1014C000E80110920A0280E090E00E94210581E08C
:1014D00090E00E9421050E940001C093E701109254
:1014E000E80110920A0281E090E00E94210580E06C
:1014F00090E00E9421050E940001C0E0D0E08EEF44
:101500000E942A058DEF0E942A058BEF0E942A0572
:1015100087EF0E942A058FEE0E942A058FED0E9418
:101520002A058FEB0E942A058FE70E942A05209743
:1015300031F30E940000E3CFEE0FFF1F0590F491FE
:10154000E02D099481E090E0F8940C94A70AF894B7
:02155000FFCFCB
:10155200FFFFFFFF00E100000000000000C18081EA
:10156200000000000000000C02B5032D02220273ED
:101572000231024F0200000000F204C5042705995F
:0815820004BD04A9049A040051
:00000001FF
