:100000000C945D000C9485000C9485000C94850084
:100010000C9485000C9485000C9485000C9485004C
:100020000C9485000C9485000C9485000C9485003C
:100030000C9485000C9485000C9485000C9485002C
:100040000C9480030C9485000C94F0030C94CA0368
:100050000C9485000C9485000C9485000C9485000C
:100060000C9422040C94850000000000240027005A
:100070002A0000000000250028002B0004040404CE
:100080000404040402020202020203030303030342
:10009000010204081020408001020408102001021F
:1000A00004081020000000080002010000030407FB
:1000B0000000000000000000500511241FBECFEF1B
:1000C000D8E0DEBFCDBF11E0A0E0B1E0E4E3FEE0A8
:1000D00002C005900D92A832B107D9F722E0A8E23C
:1000E000B1E001C01D92AE38B207E1F710E0CDE5F6
:1000F000D0E004C02197FE010E940D07CC35D10746
:10010000C9F70E9489050C9418070C9400003091DF
:10011000E401313208F04BC08091C0018111FCCF65
:100120009091E30122E02093C00121E02093BF01E0
:100130002FEF2093BE011092BD013093BC01E3EC80
:10014000F1E0ACE9B1E020E0321721F041914D93AC
:100150002F5FFACF10929B0120919B01990F922B58
:1001600090939B0190919A01913061F410929A01C1
:1001700090919B019093BB009091BC0093FDF8CFB0
:1001800095EC01C095EE9093BC009091C001923027
:10019000E1F39091BE019F3F79F08091BE018032E2
:1001A00041F08091BE01803331F084E005C081E0F0
:1001B00003C082E001C083E01092C2011092E4010A
:1001C0001092C101089590E0FC01EC55FF4F24917D
:1001D000FC01E057FF4F3491FC01E458FF4FE491DC
:1001E000EE2309F43CC0222339F1233091F038F496
:1001F0002130A9F0223001F584B58F7D12C027305F
:1002000091F02830A1F02430B9F4809180008F7DE6
:1002100003C0809180008F77809380000DC084B5EB
:100220008F7784BD09C08091B0008F7703C0809123
:10023000B0008F7D8093B000F0E0EE0FFF1FEE580E
:10024000FF4FA591B4919FB7F894611104C08C91B0
:100250003095382302C0EC913E2B3C939FBF08950C
:100260003FB7F8948091960190919701A0919801E1
:10027000B091990126B5A89B05C02F3F19F00196B2
:10028000A11DB11D3FBFBA2FA92F982F8827820F1C
:10029000911DA11DB11DBC01CD0142E0660F771F6C
:1002A000881F991F4A95D1F708958F929F92AF9218
:1002B000BF92CF92DF92EF92FF926B017C010E947E
:1002C00030014B015C01C114D104E104F104F1F0EF
:1002D0000E943001DC01CB0188199909AA09BB09E8
:1002E000883E9340A105B10570F321E0C21AD10800
:1002F000E108F10888EE880E83E0981EA11CB11C6D
:10030000C114D104E104F10419F7DDCFFF90EF909F
:10031000DF90CF90BF90AF909F908F9008950895F9
:100320000895CF92DF92EF92FF920F931F93CF9396
:10033000DF936C017A018B01C0E0D0E0CE15DF05C0
:1003400081F0D8016D918D01D601ED91FC91019064
:10035000F081E02DC6010995892B11F02196EECF91
:100360007E01C701DF91CF911F910F91FF90EF9018
:10037000DF90CF900895FC01538D448D252F30E000
:10038000842F90E0821B930B541710F0CF960895A2
:1003900001970895FC01918D828D981761F0828DEF
:1003A000DF01A80FB11D5D968C91928D9F5F9F73A9
:1003B000928F90E008958FEF9FEF0895FC01918D4B
:1003C000828D981731F0828DE80FF11D858D90E0B8
:1003D00008958FEF9FEF0895FC01918D228D892F55
:1003E00090E0805C9F4F821B91098F73992708953D
:1003F00085EE91E00E94EC0121E0892B09F420E0D8
:10040000822F0895FC01848DDF01A80FB11DA35A2E
:10041000BF4F2C91848D90E001968F739927848F24
:10042000A689B7892C93A089B1898C918370806447
:100430008C93938D848D981306C00288F389E02DE8
:1004400080818F7D80830895EF92FF920F931F9399
:10045000CF93DF93EC0181E0888F9B8D8C8D981377
:1004600005C0E889F989808185FD26C0F62E0B8DAF
:1004700010E00F5F1F4F0F731127E02E8C8DE812D5
:100480000CC00FB607FCFACFE889F989808185FF97
:10049000F5CFCE010E940202F1CF8B8DFE01E80F55
:1004A000F11DE35AFF4FF0829FB7F8940B8FEA8952
:1004B000FB89808180620AC09FB7F894EE89FF892A
:1004C0006083E889F98980818370806480839FBF1D
:1004D00081E090E0DF91CF911F910F91FF90EF901D
:1004E0000895CF93DF93EC01888D8823C9F0EA89C2
:1004F000FB89808185FD05C0A889B9898C9186FD1D
:100500000FC00FB607FCF5CF808185FFF2CFA88919
:10051000B9898C9185FFEDCFCE010E940202E7CF11
:10052000DF91CF91089580E090E0892B29F00E941F
:10053000F80181110C940000089585ED8093BC00B2
:100540008091BC0084FDFCCF1092C00108954091C1
:100550006801262F30E0240F311D21323105DCF4F3
:100560002091C0012430C9F4FC0180E090E086179E
:1005700058F4309168012191DC01A85BBE4FA30FB4
:10058000B11D2C930196F3CF80916801680F6093A1
:10059000680180E0089581E0089582E0089508955B
:1005A000E091900180918F01E81730F4F0E0E85D70
:1005B000FE4F808190E008958FEF9FEF0895909116
:1005C000900180918F01981750F4E92FF0E0E85DD9
:1005D000FE4F208130E09F5F9093900102C02FEF8B
:1005E0003FEFC901089580918F0190E02091900123
:1005F000821B91090895CF92DF92EF92FF920F93A1
:100600001F93CF93DF937C01CB018A012091C1011D
:10061000222389F0EB016B01C40ED51ECC15DD053C
:1006200069F06991D701ED91FC910190F081E02D85
:10063000C7010995F3CF642F0E94A702C801DF917B
:10064000CF911F910F91FF90EF90DF90CF90089581
:10065000CF93DF931F92CDB7DEB769832091C1019D
:100660002223D1F02091E401203240F021E030E05B
:10067000FC013383228380E090E015C08091C201A9
:10068000E82FF0E0ED53FE4F998190838F5F8093C8
:10069000C2018093E40105C061E0CE0101960E9491
:1006A000A70281E090E00F90DF91CF910895682F2D
:1006B00082E892E00C942803089580E090E0089589
:1006C000CF93C82F81E08093C10180E28093E30142
:1006D0001092C2011092E40183E190E00E9457035E
:1006E0006C2F82E892E00E9428030E94870064E653
:1006F00070E080E090E0CF910C9455010E941307C8
:100700001F920F920FB60F9211242F933F938F9346
:100710009F93AF93BF938091920190919301A09189
:100720009401B09195013091910123E0230F2D3771
:1007300020F40196A11DB11D05C026E8230F0296E5
:10074000A11DB11D2093910180939201909393017B
:10075000A0939401B0939501809196019091970197
:10076000A0919801B09199010196A11DB11D8093AE
:10077000960190939701A0939801B0939901BF912E
:10078000AF919F918F913F912F910F900FBE0F903E
:100790001F9018951F920F920FB60F9211242F934E
:1007A0003F934F935F936F937F938F939F93AF93F9
:1007B000BF93EF93FF9385EE91E00E940202FF91B9
:1007C000EF91BF91AF919F918F917F916F915F91C9
:1007D0004F913F912F910F900FBE0F901F90189542
:1007E0001F920F920FB60F9211242F938F939F9306
:1007F000EF93FF93E091F501F091F6018081E09194
:10080000FB01F091FC0182FD12C090818091FE01FC
:100810008F5F8F732091FF01821751F0E091FE01ED
:10082000F0E0EB51FE4F958F8093FE0101C0808177
:10083000FF91EF919F918F912F910F900FBE0F908D
:100840001F9018951F920F920FB60F9211242F939D
:100850003F934F935F936F937F938F939F93AF9348
:10086000BF93EF93FF938091B900887F803609F49E
:100870009CC068F5883209F45BC090F4803109F4BB
:1008800054C038F4882309F4F6C0883009F44DC008
:10089000F6C0883109F44CC0803209F45DC0EFC065
:1008A000803409F468C048F4803309F455C08833B3
:1008B00009F0E5C08093BE01D8C0803509F44FC06F
:1008C000883509F45DC0883409F0D9C0D6C08839AC
:1008D00009F4C7C0A8F4883709F467C038F488362B
:1008E00009F463C0803709F460C0C9C0883809F4CE
:1008F000B8C0803909F45FC0803809F0C0C05BC05F
:10090000803B09F486C038F4803A09F466C0883A1E
:1009100009F47FC0B4C0803C09F4A7C0883C09F446
:10092000A4C0883B09F48AC0AAC080919B0110C072
:100930009091BD018091BC01981770F5E091BD01C7
:1009400081E08E0F8093BD01F0E0E456FE4F808180
:100950008093BB0085EC86C08093BE018EC0E09181
:10096000BD0181E08E0F8093BD018091BB00F0E05E
:10097000E456FE4F80839091BD018091BC016EC012
:10098000E091BD0181E08E0F8093BD018091BB009D
:10099000F0E0E456FE4F80838091BF0181116DC06D
:1009A00081E080939A0184EA61C083E08093C00172
:1009B00010928A01CFCF80918A01803208F051C015
:1009C000E0918A0181E08E0F80938A018091BB00C3
:1009D000F0E0E659FE4F8083BDCF85EC8093BC00EC
:1009E0001092C00180918A01803230F4E0918A0136
:1009F000F0E0E659FE4F108260918A0170E0E091CC
:100A00008B01F0918C018AE691E0099510928A01A0
:100A100036C084E08093C001109269011092680191
:100A2000E0918D01F0918E0109958091680181110D
:100A300005C081E08093680110924801E09169014E
:100A400081E08E0F80936901F0E0E85BFE4F8081CA
:100A50008093BB009091690180916801981708F418
:100A600079CF85E88093BC000AC085EC8093BC00F8
:100A70001092C00104C01092BE010E949D02FF911D
:100A8000EF91BF91AF919F918F917F916F915F9106
:100A90004F913F912F910F900FBE0F901F9018957F
:100AA000E5EEF1E01382128288EE93E0A0E0B0E080
:100AB00084839583A683B78324E031E03183208348
:100AC00025EC30E03587248724EC30E03787268713
:100AD00020EC30E0318B208B21EC30E0338B228B0B
:100AE00022EC30E0358B248B26EC30E0378B268BE4
:100AF000118E128E138E148EE2E8F2E013821282AF
:100B000084839583A683B78386E191E09183808374
:100B10000895CF93DF93CDB7DEB7A1970FB6F894C2
:100B2000DEBF0FBECDBF789484B5826084BD84B52E
:100B3000816084BD85B5826085BD85B5816085BDD8
:100B400080916E00816080936E0010928100809190
:100B50008100826080938100809181008160809318
:100B60008100809180008160809380008091B1003D
:100B700084608093B1008091B00081608093B00068
:100B800080917A00846080937A0080917A008260FC
:100B900080937A0080917A00816080937A008091BE
:100BA0007A00806880937A001092C100E091F5018C
:100BB000F091F60182E08083E091F101F091F20181
:100BC0001082E091F301F091F4018FEC8083109298
:100BD000FD01E091F901F091FA0186E08083E09156
:100BE000F701F091F801808180618083E091F70145
:100BF000F091F801808188608083E091F701F091A5
:100C0000F801808180688083E091F701F091F8011C
:100C100080818F7D80831092900110928F011092BD
:100C2000C2011092E4011092C00111E01093BF01C3
:100C300010929A0161E082E10E94E30061E083E1A9
:100C40000E94E3008091B9008E7F8093B90080916B
:100C5000B9008D7F8093B90088E48093B80085E463
:100C60008093BC008FE891E090938E0180938D017A
:100C700080E991E090938C0180938B011093C101E6
:100C800080E28093E3011092C2011092E40180E0BF
:100C900090E00E94570381E090E00E9457030E9479
:100CA00087001093C1011092C2011092E40181E00B
:100CB00090E00E94570380E090E00E9457030E945A
:100CC0008700E3E9F0E02491EFE7F0E084918823E6
:100CD00099F090E0880F991FFC01E859FF4FA5910A
:100CE000B491FC01EE58FF4F859194918FB7F89421
:100CF000EC91E22BEC938FBFEE24E39480E2D82EAC
:100D00009AE0892E912CA12CB12CE092C101D092B5
:100D1000E3011092C2011092E40182E190E00E948E
:100D2000570382E892E00E94DF02F82E0E948700BB
:100D30002F2D30E040E050E019A28E010F5D1F4FD3
:100D4000CA01B901A50194010E94EB06605DF8019A
:100D500062938F01211531054105510589F73097BF
:100D600061F001900020E9F73197AF01401B510B72
:100D7000B80185EE91E00E94910142E050E064E20A
:100D800071E085EE91E00E9491016F2D617083E02A
:100D90000E94E30064EF71E080E090E00E94550162
:100DA0008EEF0E9460038DEF0E9460038BEF0E9424
:100DB000600387EF0E9460038FEE0E9460038FED57
:100DC0000E9460038FEB0E9460038FE70E94600324
:100DD0000E9493029ACFA1E21A2EAA1BBB1BFD010F
:100DE0000DC0AA1FBB1FEE1FFF1FA217B307E4070A
:100DF000F50720F0A21BB30BE40BF50B661F771F62
:100E0000881F991F1A9469F7609570958095909541
:100E10009B01AC01BD01CF010895EE0FFF1F0590AE
:100E2000F491E02D099481E090E0F8940C94180777
:040E3000F894FFCF64
:100E34000000000024029101BB017102EC01CA010F
:100E4400DE01000000002803FB025D03CF02F30271
:080E5400DF02D0020D0A0000CC
:107E0000112484B714BE81FFF0D085E080938100F7
:107E100082E08093C00088E18093C10086E0809377
:107E2000C20080E18093C4008EE0C9D0259A86E02C
:107E300020E33CEF91E0309385002093840096BBD3
:107E4000B09BFECF1D9AA8958150A9F7CC24DD24C4
:107E500088248394B5E0AB2EA1E19A2EF3E0BF2EE7
:107E6000A2D0813461F49FD0082FAFD0023811F036
:107E7000013811F484E001C083E08DD089C08234E0
:107E800011F484E103C0853419F485E0A6D080C0E4
:107E9000853579F488D0E82EFF2485D0082F10E0AE
:107EA000102F00270E291F29000F111F8ED06801E7
:107EB0006FC0863521F484E090D080E0DECF843638
:107EC00009F040C070D06FD0082F6DD080E0C81688
:107ED00080E7D80618F4F601B7BEE895C0E0D1E017
:107EE00062D089930C17E1F7F0E0CF16F0E7DF06D8
:107EF00018F0F601B7BEE89568D007B600FCFDCFD4
:107F0000A601A0E0B1E02C9130E011968C91119780
:107F100090E0982F8827822B932B1296FA010C0160
:107F200087BEE89511244E5F5F4FF1E0A038BF0790
:107F300051F7F601A7BEE89507B600FCFDCF97BE46
:107F4000E89526C08437B1F42ED02DD0F82E2BD052
:107F50003CD0F601EF2C8F010F5F1F4F84911BD097
:107F6000EA94F801C1F70894C11CD11CFA94CF0C13
:107F7000D11C0EC0853739F428D08EE10CD085E9AC
:107F80000AD08FE07ACF813511F488E018D01DD067
:107F900080E101D065CF982F8091C00085FFFCCF94
:107FA0009093C60008958091C00087FFFCCF809118
:107FB000C00084FD01C0A8958091C6000895E0E648
:107FC000F0E098E1908380830895EDDF803219F02E
:107FD00088E0F5DFFFCF84E1DECF1F93182FE3DFCA
:107FE0001150E9F7F2DF1F91089580E0E8DFEE27F6
:047FF000FF270994CA
:027FFE00040479
:0400000300007E007B
:00000001FF
